:060000000A128A110E280D
:10000800FE00030EF0000A08F1007F08F2000A164D
:100018008A116B2E0A128A1111288317DC30FD0011
:100028001F30FE004230FF00C03084000A168A15D7
:10003800D6260A128A118313EE30FD001E30FE0008
:100048003230FF00E53084000A168A15D6260A12D7
:100058008A116F30FD001E30FE003B30FF00653016
:1000680084000A168A15D6260A128A110A128A11DB
:10007800FE270A128A11F8000A128A11FF270A12AB
:100088008A11F900831790308400C0300A168A1547
:1000980018260A128A118313A0308400E5300A1644
:1000A8008A1518260A128A115930840065300A16F2
:1000B8008A1518260A128A11FA0183010A168A116A
:1000C800592D0A168A15AD260A128A1183120313AE
:1000D800DF014630A0009030A1008030A2000A164F
:1000E8008A117C220A128A11CB3083120313A000D2
:1000F8000030A100C030A2000A168A117C220A1220
:100108008A1183120313B901B90ABA01BA0A003075
:10011800B8000030B7000030B6000030B50000303D
:10012800B4000030B3000030B2000030B1008316D4
:100138000313650883120313AA00831603136608C2
:1001480083120313AB008316031367088312031388
:10015800AC000230BC000030A7000030A80000301E
:10016800A900BB01BB0A0030B0000030AF0000306E
:10017800AE000030AD0000300A168A1178210A124C
:100188008A1183120313BD000130AD070030031834
:100198000130AE07003003180130AF0700300318F4
:1001A8000130B00721302D064E3003192E062F04DA
:1001B8003004031DE028E1281829003083120313B6
:1001C800B0000030AF000030AE000030AD003B089A
:1001D8000319EF28F028FF28CB30A0000030A10039
:1001E800C030A2000A168A117C220A128A118312D0
:1001F8000313BB0118292A30A0000030A1000330E6
:10020800F3003C080A168A15E5260A128A11C03E30
:1002180083120313A2000A168A117C220A128A1179
:1002280083120313BB01BB0A3730831203133D0645
:10023800031D1F29202930290130B5070030031874
:100248000130B607003003180130B7070030031833
:100258000130B807B9019C2A3F303D06031D3529F6
:1002680036299C2A3908031D3A293B299C2AB901B9
:10027800B90A3808031D4E293708031D4E293A309C
:100288003602031D4B2998303502031D4B290318EC
:100298004E294F29872A003083120313B8000030F3
:1002A800B7000030B6000030B500742A8316031377
:1002B8004B0883120313A300A4012308F3002408A6
:1002C800F4000A30F5000030F6000A168A11CD2134
:1002D8000A128A11831603134C0873078312031337
:1002E800A5000030031801307407A6002508F03E69
:1002F800BE0026080318013EFD3EBF000130BE07C0
:100308000318BF0A0030BF0718303E063F04031D1C
:100318008E298F299129BE01BF010A30F3000030D0
:10032800F4003F08F6003E08F5000A168A11182462
:100338000A128A117308303E83160313CB000A3061
:10034800F3000030F400831203133F08F6003E0860
:10035800F5000A168A11E3220A128A117308303E40
:1003680083160313CC009C2A831603134E088312AA
:100378000313A300A4012308F3002408F4000A309F
:10038800F5000030F6000A168A11CD210A128A11EA
:10039800831603134F08730783120313A500003055
:1003A800031801307407A6002508F03EBE00260891
:1003B8000318013EFD3EBF000130BE070318BF0A07
:1003C8000030BF073C303E063F04031DEC29ED29F1
:1003D800EF29BE01BF010A30F3000030F4003F08E6
:1003E800F6003E08F5000A168A1118240A128A1126
:1003F8007308303E83160313CE000A30F300003032
:10040800F400831203133F08F6003E08F5000A16AD
:100418008A11E3220A128A117308303E83160313E5
:10042800CF009C2A83160313510883120313A300D9
:10043800A4012308F3002408F4000A30F500003072
:10044800F6000A168A11CD210A128A11831603139F
:100458005208730783120313A500003003180130F4
:100468007407A6002508F03EBE0026080318013EC2
:10047800FD3EBF000130BE070318BF0A0030BF07AA
:100488003C303E063F04031D4A2A4B2A4D2ABE0132
:10049800BF010A30F3000030F4003F08F6003E08C0
:1004A800F5000A168A1118240A128A117308303EB8
:1004B80083160313D1000A30F3000030F4008312CE
:1004C80003133F08F6003E08F5000A168A11E322D6
:1004D8000A128A117308303E83160313D2009C2A2D
:1004E8003C08A300A4012408003A03197C2A9C2A8A
:1004F8002308003A03195A29013A0319B829033A7B
:100508000319162A9C2A83120313E401EC01EC0A4E
:10051800DE010A168A15AD260A128A118312031300
:10052800DF01DF0A0A168A1101250A128A11F32A45
:100538002F3083123D06031DA22AA32AB32A0130B5
:10054800B107003003180130B2070030031801303A
:10055800B307003003180130B407BA01BF283F3091
:100568003D06031DB82AB92ABF283A08031DBD2A2B
:10057800BE2ABF28BA01BA0A3408031DD12A330893
:10058800031DD12A3A303202031DCE2A9830310297
:10059800031DCE2A0318D12AD22AE82A0330F300F1
:1005A8000030F400831203133C08013EF5000030CC
:1005B80003180130F6000A168A11B3250A128A11A7
:1005C800730883120313BC00003083120313B400B2
:1005D8000030B3000030B2000030B100BF2808007E
:1005E80083120313B801B80AB4012F308400053010
:1005F800FF0083138001840AFF0BFD2A2A30840040
:100608000530FF008001840AFF0B062BBB01B901EE
:10061800BA01A601A701B501B601A801A9010A16E8
:100628008A15AD260A128A1101300A168A11782114
:100638000A128A1183120313B7003408031D252BED
:10064800262BCD2B3530A0009030A1008030A200A1
:100658000A168A117C220A128A11013083120313A6
:10066800B5070318B60A0030B60705303506360454
:10067800031D3F2B402B722BB501B6013803031D18
:10068800462B472B542B3B08C03EF70020300A1658
:100698008A15FA260A128A1183120313B801722BDB
:1006A8003808031D582B592B672B3B08C03EF70011
:1006B800FF300A168A15FA260A128A1183120313C2
:1006C800B801B80A722B0230B8003B08C03EF700E8
:1006D80020300A168A15FA260A128A113730831230
:1006E80003133706031D792B7A2B9F2B00303A0210
:1006F8000430031939020318822B832BBE2B3908C7
:100708002F3E84003030831380003B08C03EF70042
:100718002A300A168A15FA260A128A11013083121B
:100728000313B9070318BA0A0030BA070130FF00EB
:100738007F08BB07BE2B2F303706031DA42BA52B24
:10074800BE2B00303A020430031939020318AD2BCE
:10075800AE2BBE2B39082F3E840031308313800026
:100768003B08C03EF7002A300A168A15FA260A12F4
:100778008A11922B00303A02043003193902031C03
:10078800C62BC72B182BBB01B901BA01B401B40A97
:10079800132B2430A0009030A1008030A2000A164C
:1007A8008A117C220A128A11013083120313B507B9
:1007B8000318B60A0030B607053035063604031D9F
:1007C800E62BE72B192CB501B6013803031DED2BD9
:1007D800EE2BFB2B3B08C03EF70020300A168A158B
:1007E800FA260A128A1183120313B801192C380841
:1007F800031DFF2B002C0E2C3B08C03EF700FF30DA
:100808000A168A15FA260A128A1183120313B801E6
:10081800B80A192C0230B8003B08C03EF700203057
:100828000A168A15FA260A128A1137308312031318
:100838003706031D202C212C462C00303A020430A8
:10084800031939020318292C2A2C652C39082A3E49
:1008580084003030831380003B08C03EF7002A3004
:100868000A168A15FA260A128A110130831203130E
:10087800B9070318BA0A0030BA070130FF007F0829
:10088800BB07652C2F303706031D4B2C4C2C652CD1
:1008980000303A020430031939020318542C552C3D
:1008A800652C39082A3E84003130831380003B08C8
:1008B800C03EF7002A300A168A15FA260A128A114B
:1008C800392C00303A02043003193902031C6D2C0C
:1008D8006E2C182BBB01B901BA01B4012A30F30000
:1008E8002F300A168A11D5230A128A117308740444
:1008F800031D7F2C802CBE2C2F300A168A15262724
:100908000A128A1183120313EA01EA0A0A168A15DF
:10091800AD260A128A11133083120313A0009030F7
:10092800A1008030A2000A168A117C220A128A11BC
:100938009B3083120313A0009030A100C030A200A6
:100948000A168A117C220A128A111A30831203139A
:10095800A5005E30A4006D30A300A30BB12CA40B3E
:10096800B12CA50BB12CB82C0A168A15AD260A1283
:100978008A11F92C2F300A168A159B260A128A1119
:100988002A300A168A159B260A128A110A168A150F
:10099800AD260A128A11CB3083120313A0009030BF
:1009A800A1008030A2000A168A117C220A128A113C
:1009B800E93083120313A0009030A100C030A200D8
:1009C8000A168A117C220A128A111A30831203131A
:1009D800A5005E30A4006D30A300A30BF12CA40B7E
:1009E800F12CA50BF12CF82C132B08008312031300
:1009F8006008031D002D012D2A2D6108031D052DFA
:100A0800062D2A2DE001E00AE101E10A3130F30068
:100A180000300A168A114F220A128A113030F30068
:100A280001300A168A114F220A128A113130F30056
:100A380002300A168A114F220A128A113030F30046
:100A480003300A168A114F220A128A1183120313DD
:100A58006A080319302D312D692DEA01BD013D08C1
:100A6800D93E84003D080A168A150F270A128A11F2
:100A7800831380000130FF007F0883120313BD0732
:100A880004303D02031C492D4A2D332DD930A000D6
:100A98000030A100C230A2000A168A117C220A1274
:100AA8008A111A3083120313BA005E30B9006D3010
:100AB800B800B80B5D2DB90B5D2DBA0B5D2D642DFB
:100AC8000A168A15AD260A128A11831203136208C0
:100AD800031D6F2D702D812E01300A168A11782181
:100AE8000A128A1183120313BC007930A0009030D7
:100AF800A1008030A2000A168A117C220A128A11EB
:100B0800013083160313C2070318C30A0030C30752
:100B1800053042064304031D922D932DBE2DC201BC
:100B2800C301831203136903031D9B2D9C2DA92D5B
:100B38006808C03EF70020300A168A15FA260A12FD
:100B48008A1183120313E901BE2D6908031DAD2D17
:100B5800AE2DBC2D6808C03EF700FF300A168A1576
:100B6800FA260A128A1183120313E901E90ABE2D33
:100B78000230E900373083123C06031DC42DC52D11
:100B8800EA2D00305A020430031959020318CD2DFA
:100B9800CE2D092E5908D43E8400303083138000AE
:100BA8006808C03EF7002A300A168A15FA260A1283
:100BB8008A11013083120313D9070318DA0A0030A7
:100BC800DA070130FF007F08E807092E2F303C06BE
:100BD800031DEF2DF02D092E00305A0204300319A1
:100BE80059020318F82DF92D092E5908D43E84000E
:100BF8003130831380006808C03EF7002A300A1697
:100C08008A15FA260A128A11DD2D00305A0204309C
:100C180003195902031C112E122EF92E0330E80075
:100C2800D901DA01013083160313E8020030031CEE
:100C3800E903E9020130C4070318C50A0030C507F3
:100C4800D930F300D4300A168A11D5230A128A1132
:100C580073087404031D312E322E3C2E83120313A5
:100C6800E401E40A0A168A15AD260A128A11F92E39
:100C7800D4300A168A159B260A128A110A168A1572
:100C8800AD260A128A11DA3083120313A0009030BD
:100C9800A1008030A2000A168A117C220A128A1149
:100CA800C230F700831603136808303E0A168A1507
:100CB800FA260A128A111A3083120313BA005E3018
:100CC800B9006D30B800B80B672EB90B672EBA0B98
:100CD800672E6E2E0A168A15AD260A128A118316F9
:100CE800031368086904031D7A2E7B2E802E831255
:100CF8000313E201E20A362EF92E8A30A000903062
:100D0800A1008030A2000A168A117C220A128A11D8
:100D1800333083120313A0009130A100C030A20029
:100D28000A168A117C220A128A11B4308316031318
:100D38003206330434043504031DA32EA42EBA2E20
:100D4800003083160313B5000030B4000030B30040
:100D58000030B20083120313E20103308316031339
:100D6800E8000030E900C401C501362EB430831212
:100D78000313B8000030B9000030BA000030BB00DF
:100D880083160313320883120313B802831603135E
:100D98003308031C330FD12ED42E83120313B90248
:100DA800831603133408031C340FDB2EDE2E831244
:100DB8000313BA02831603133508031C350FE52EF7
:100DC800E82E83120313BB02831603138312031343
:100DD8003B08B0003A08AF003908AE003808AD004B
:100DE8000A128A154C200A128A11080000300A16C5
:100DF8008A1178210A128A1183120313DD00373011
:100E08005D06031D082F092F152F013083160313C4
:100E1800C0070318C10A0030C10783120313E70192
:100E28007C2F3F305D06031D1A2F1B2F7C2F670870
:100E3800031D1F2F202F7C2FE701E70A00308316A0
:100E48000313410214300319400203182C2F2D2FCD
:100E58005A2F831203135E080319332F342F782F68
:100E68000130DE020A168A15AD260A128A11782F79
:100E78000A128A15AB230A128A11752F0A168A11CB
:100E880096230A128A11752F0A128A15EE220A125F
:100E98008A11752F0A128A1165200A128A11752F74
:100EA8000A128A11F4220A128A11752F8312031367
:100EB8005E08C000C1014108003A0319642F752F6C
:100EC8004008003A03193C2F013A0319422F033A0C
:100ED8000319482F013A03194E2F073A0319542FC3
:100EE800752F83120313DE0183160313C001C1019A
:100EF8002F3083125D06031D822F832F8D2F013023
:100F080083160313BE070318BF0A0030BF07F80192
:100F1800C92F3F305D06031D922F932FC92F7808E4
:100F2800031D972F982FC92FF801F80A0030831650
:100F380003133F02323003193E020318A42FA52FD2
:100F4800B92FBE01BF010430831203135E020318D8
:100F5800AE2FAF2FC92F0130FF007F08DE070A161A
:100F68008A15AD260A128A11C92FBE01BF01831244
:100F78000313EA01EA0AE401EC01EC0ADE010A16AD
:100F88008A15AD260A128A11DC2F831203135E0814
:100F9800A300D2300A128A1535210A128A11831247
:100FA80003135F080319D92FDA2FDC2FDF01C32FB2
:100FB8000800F7007708840002300A168A11A22177
:100FC8000A128A1183138000770A840001300A16F6
:100FD8008A11A2210A128A11831380007708023E1F
:100FE800840000300A168A11A2210A128A1183137A
:080FF8008000080001340134FF
:10100600F4007408840083130008F300043003100E
:10101600F30CFF3E031D0A2873080339303E83167E
:101026000317B1007408840000080F39303EB2007F
:101036003A30B300740A84000008F3000430031049
:10104600F30CFF3E031D222873080739303EB40017
:10105600740A840000080F39303EB5003A30B600F5
:101066007408023E84000008F30004300310F30CF9
:10107600FF3E031D392873080739303EB700740850
:10108600023E840000080F39303EB8000830FA00EE
:101096000800093083120313B5000030B400003095
:1010A600B3000030B2000030B1000230B6000030AC
:1010B600B7003608313E84000030A3000030A2009D
:1010C6000030A1000A30A0003008A7002F08A600B3
:1010D6002E08A5002D08A4000A168A11AB240A12B0
:1010E6008A15831203132008303E831380000030D4
:1010F600A3000030A2000030A1000A30A000300892
:10110600A7002F08A6002E08A5002D08A4000A1681
:101116008A112D270A128A15831203132308B00099
:101126002208AF002108AE002008AD00FF30B60748
:101136000318B70AFF30B707B71FA228A3285C28F1
:101146003130A0000030A1003508C03EA2000A16CA
:101156008A117C220A128A15563083120313A000C4
:101166009130A100CC30A2000A168A117C220A1204
:101176008A1508000310831203134A0D4B0DD10084
:101186005108031DC728C828D1280030CB000030DD
:10119600CA000030C9000030C80034294808CC0015
:1011A6004908CD004A08CE004B08CF001F30031077
:1011B600CF0CCE0CCD0CCC0CFF3E031DDA284C0810
:1011C600D000CA17FF30C805FF30C905FF30CA0571
:1011D6000030CB059630D102D11FF228F3280D2915
:1011E6005108803A973E0318F928FA28FB28C828A0
:1011F60001300310CB0CCA0CC90CC80CFF3E031DF2
:10120600FC280130FF007F08D107031D0B290C299C
:10121600FB28242920305102031C122913291F29D7
:10122600C8280130CC000310C80DC90DCA0DCB0D5E
:10123600CC0B16290130D1025108031D232924297C
:10124600142950080319282929293429C809C90944
:10125600CA09CB09C80A0319C90A0319CA0A031914
:10126600CB0A080083120313A70004302306031DCC
:101276003D293E297629C030F7002A300A168A15FC
:10128600FA260A128A15831203132308A4002407D8
:101296002707A5002508FE3E840083170008A00046
:1012A600840A00088403A1008230A2000A168A116B
:1012B6007C220A128A15831203132308A40024072A
:1012C6002707A5002508840083170008A000840AC4
:1012D60000088403A100C230A2000A168A117C22EB
:1012E6000A128A15AD298030F7002A300A168A15A7
:1012F600FA260A128A15831203132308A400240768
:101306002707A5002508840083170008A000840A83
:1013160000088403A1008230A2000A168A117C22EA
:101326000A128A15831203132308A4002407270729
:10133600A5002508023E840083170008A000840A41
:1013460000088403A100C230A2000A168A117C227A
:101356000A128A15080083120313A70083160313C3
:10136600CA01831203132708A300A4012308F3006C
:101376002408F4000F30F5000030F6000A168A1132
:10138600CD210A128A15740883120313A600730866
:10139600A500EA29831603134A08A13E8400831296
:1013A600031325080A168A11F8210A128A158317CB
:1013B60080000130FF007F0883160313CA0701303F
:1013C60083120313A5070318A60A0030A6072708E9
:1013D600013EF300003003180130F4000F30F50031
:1013E6000030F6000A168A11CD210A128A157408F1
:1013F600831203132602031D022A73082502031C07
:10140600052A062ACD298030F70023300A168A15C8
:10141600FA260A128A15C030F7008312031327082A
:10142600303E0A168A15FA260A128A15AB3083123E
:101436000313A0009030A1008130A2000A168A1181
:101446007C220A128A15A13083120313A0000130F0
:10145600A100C230A2000A168A117C220A128A153D
:10146600080083120313A800280803193B2A3C2A04
:10147600502AA31F3F2A402A502A2009AA002109E0
:10148600AB002209AC002309AD00AA0A0319AB0A76
:101496000319AC0A0319AD0A582A2308AD0022081D
:1014A600AC002108AB002008AA002308220421046E
:1014B6002004031D5F2A602A692A0030A300003039
:1014C600A2000030A1000030A000ED2A9630A9004D
:1014D600792A0130FF007F08A90701300310AD0CFF
:1014E600AC0CAB0CAA0CFF3E031D712AFE302D0579
:1014F600031D7E2A7F2A6C2A9B2A0130FF007F0863
:10150600A9070130AA07003003180130AB070030E5
:1015160003180130AC07003003180130AD07013065
:101526000310AD0CAC0CAB0CAA0CFF3E031D932AAA
:10153600FF302D05031DA02AA12A802AAD2A0130DD
:10154600A9020130A4000310AA0DAB0DAC0DAD0D20
:10155600A40BA62AAC1BB02AB12AB72A023029024C
:101566000318B62AB72AA22A2918BA2ABB2AC32AD6
:10157600FF30AA05FF30AB057F30AC05FF30AD0567
:101586000310A90C2908A400A501A601A70118307B
:101596000310A40DA50DA60DA70DFF3E031DCB2A16
:1015A6002408AA042508AB042608AC042708AD04C1
:1015B60028080319DF2AE02AE52AA31FE32AE42ADA
:1015C600E52AAD172D08A3002C08A2002B08A100C0
:1015D6002A08A00008000A168A15AD260A128A15DE
:1015E6001E3083120313A0009130A1008030A200A8
:1015F6000A168A117C220A128A150D3083120313E9
:10160600A500AF30A400B530A300A30B082BA40B94
:10161600082BA50B082B0F2B0A168A15AD260A12C6
:101626008A1583120313650A031D1D2B660A031D03
:101636001D2B1E2B282B0030F4009030F5000A16C7
:101646008A15DA270A128A15AA2B831603133D0870
:1016560083120313A900831603133C088312031392
:10166600A800972B2908F4002808F3000F30F5008E
:101676000030F6000A168A11CD210A128A1574085E
:1016860083120313A7007308A600662B83160313A1
:101696004608903E84008312031326080A168A1110
:1016A600F8210A128A15831780000130FF007F088F
:1016B60083160313C607013083120313A607031804
:1016C600A70A0030A7072808013EF30029080318D7
:1016D600013E003EF4000F30F5000030F6000A1619
:1016E6008A11CD210A128A15740883120313270260
:1016F600031D7F2B73082602031C822B832B492B89
:101706004F30F4009130F5000A168A15DA270A12CE
:101716008A1583160313C601013083120313A80723
:101726000318A90A0030A90729086602031D9D2B84
:10173600280865020318A02BA12B352B831603134B
:10174600BC01BD010A168A15AD260A128A150800C3
:1017560000300A168A1178210A128A158312031399
:10176600DB006B080319B82BB92BE02B0A168A1578
:10177600AD260A128A15123083120313A000913087
:10178600A1008030A2000A168A117C220A128A154C
:101796001A3083120313AA005E30A9006D30A80028
:1017A600A80BD32BA90BD32BAA0BD32BDA2B0A16F8
:1017B6008A15AD260A128A15722C37305B06031D70
:1017C600E52BE62BEE2B0130FF007F088316031373
:1017D600C907ED01132C3F305B06031DF32BF42BD9
:1017E600132C831603136D08031DFA2BFB2B132CE6
:1017F600ED01ED0A0A3049020318022C032C132CC2
:10180600C901831203135C0803190A2C0B2C132C31
:101816000130DC020A168A15AD260A128A15132C27
:101826002F30831203135B06031D1A2C1B2C232C4B
:101836000130FF007F0883160313C807EC01692CEB
:101846003F305B06031D282C292C692C83160313B5
:101856006C08031D2F2C302C692CEC01EC0A0A3085
:1018660048020318372C382C642CC8018312031342
:101876006608803AA80080302802031D442C5C08C4
:101886006502031C472C482C692C0130FF007F0899
:1018960083120313DC076508013EA80066080318D7
:1018A600013E003EA9005C0828062904031D5C2CA5
:1018B6005D2C5E2CDC010A168A15AD260A128A15E5
:1018C600692CC80183120313DC01DA2B831203137C
:1018D6005C080A128A15AE210A128A15AB2B08007B
:1018E60083160317DE00BB3083120313A00090306B
:1018F600A1008030A2000A168A117C220A128A15DB
:10190600E2300A128A11DD270A128A15E2300A1617
:101916008A1195270A128A150A168A1589260A1225
:101926008A15730883120313D2007408D300D401F6
:10193600D5015508A3005408A2005308A100520877
:10194600A00000300A128A1534220A128A15831260
:1019560003132308B5002208B4002108B3002008A9
:10196600B2004130B1002330B000AE30AF001430C9
:10197600AE000A128A1531260A128A15831203133B
:101986003108CB003008CA002F08C9002E08C8004D
:101996000A128A15BD200A128A15831203134908F2
:1019A60083160317DD0083120313480883160317F3
:1019B600DC000230DF000030E0005F08DE3E84001D
:1019C6000A30F3000030F4005D08F6005C08F5000C
:1019D6000A168A11E3220A128A157308303E831307
:1019E60080000A30F3000030F400831603175D0808
:1019F600F6005C08F5000A168A1118240A128A15E0
:101A0600740883160317DD007308DC00FF30DF0758
:101A16000318E00AFF30E007E01F122D132DE02C1B
:101A260083160313E1013E30831603175E06031D7A
:101A36001D2D1E2D642D083083120313E3006B0841
:101A46000319262D272D282DEB016E08803AFF005D
:101A560080307F02031D312D0A306D020318342DAC
:101A6600352D462D013083120313ED070318EE0AB8
:101A76000030EE070A306D066E04031D432D442D1B
:101A8600462DED01EE01831203136608803AFF002E
:101A960080307F02031D512D093065020318542D35
:101AA600552D5D2D013083120313E5070318E60A51
:101AB6000030E60708300A168A115E240A128A15D3
:101AC6000E2E3D305E06031D692D6A2DBA2D073098
:101AD6008312031363020318712D722DBA2D013080
:101AE600FF007F08E3076B0803197A2D7B2D7C2DF9
:101AF600EB016E08803AFF0080307F02031D852DC2
:101B06000A306D020318882D892D9A2D0130831213
:101B16000313ED070318EE0A0030EE070A306D06D0
:101B26006E04031D972D982D9A2DED01EE0183125B
:101B360003136608803AFF0080307F02031DA52D3F
:101B4600093065020318A82DA92DB12D0130831285
:101B56000313E5070318E60A0030E60783120313AA
:101B660063080A168A115E240A128A150E2E3B3065
:101B7600831603175E06031DC12DC22D0E2E83127A
:101B8600031363080319C82DC92D0E2E0130E30275
:101B96006B080319CF2DD02DD12DEB016E08803A9D
:101BA600FF0080307F02031DDA2D0A306D02031814
:101BB600DD2DDE2DEF2D013083120313ED07031803
:101BC600EE0A0030EE070A306D066E04031DEC2D9A
:101BD600ED2DEF2DED01EE01831203136608803A19
:101BE600FF0080307F02031DFA2D093065020318BD
:101BF600FD2DFE2D062E013083120313E507031873
:101C0600E60A0030E6078312031363080A168A11F0
:101C16005E240A128A15831203136308D200520740
:101C2600C03E840083170008A000840A00088403CD
:101C3600A100CA30A2000A168A117C220A128A154D
:101C4600DE3083120313A0000030A100CD30A200C5
:101C56000A168A117C220A128A15080083120313B7
:101C660035088039BF003508B6003607C600B41FF0
:101C76003D2E3E2E3F2E461446080319432E442E73
:101C8600542E460A031D482E492E512E0030B5000B
:101C96000030B4000030B3000030B200B417B50114
:101CA6005C2E0030B5000030B4000030B3000030C8
:101CB600B20031088039FF007F08BF063108B60040
:101CC6003607C700B01F682E692E6A2E47144708CC
:101CD60003196E2E6F2E7F2E470A031D732E742E48
:101CE6007C2E0030B1000030B0000030AF00003074
:101CF600AE00B017B101872E0030B1000030B00041
:101D06000030AF000030AE00310830042F042E043E
:101D1600031D8E2E8F2EA82E0030B5000030B40085
:101D26000030B3000030B2008030B4047F30B50418
:101D36003F08FF007F08B5043508B1003408B0003D
:101D46003308AF003208AE00FF2F4608031DAC2E45
:101D5600AD2EB62E0030B1000030B0000030AF001E
:101D66000030AE00FF2F4608B600B7013708B900AD
:101D760047083602B800031CB90338087F3EC00086
:101D860039080318013E003EC1003508BE0034087C
:101D9600BD003308BC003208BB000030B50000307F
:101DA600B4000030B3000030B2000030C50000308F
:101DB600C4000030C3000030C200C7012C2F470802
:101DC6000319E62EE72E072F0130B6000310BB0DD0
:101DD600BC0DBD0DBE0DB60BE92E0130B6000310CD
:101DE600B20DB30DB40DB50DB60BF22EC51FFC2EFC
:101DF600FD2EFE2E32140130B6000310C20DC30DA7
:101E0600C40DC50DB60B002F31083E02031D152F5C
:101E160030083D02031D152F2F083C02031D152F08
:101E26002E083B02031C182F192F282F45172E08A2
:101E3600BB022F08031C2F0FBC023008031C300FF7
:101E4600BD023108031C310FBE020130FF007F08BE
:101E5600C7071A304702031C312F322FE22E3E08E5
:101E66003D043C043B040319392F3A2F592F4214E1
:101E7600592F0130B6000310B20DB30DB40DB50DD8
:101E8600B60B3E2FC51F482F492F4A2F321401305B
:101E9600B6000310C20DC30DC40DC50DB60B4C2FF5
:101EA600FF30C0070318C10AFF30C107B41F5C2FFB
:101EB6005D2F3C2FC701C51F612F622F7E2FFF307C
:101EC6004205B600FF304305B700FF304405B800B1
:101ED6007F304505B900390838043704360403193C
:101EE600752F762F792FC701C70A7E2F321C7C2FBC
:101EF6007D2F7E2F762F47080319822F832FB42F2D
:101F06000130B207003003180130B3070030031860
:101F16000130B407003003180130B507351C942F83
:101F2600952FB42F3208B6003308B7003408B8002E
:101F36003508B9000130BA00390DB90CB80CB70C28
:101F4600B60CBA0B9F2F3908B5003808B40037080D
:101F5600B3003608B2000130C0070318C10A0030CA
:101F6600C1074108803AFF0080307F02031DBD2F64
:101F7600FF304002031CC02FC12FCF2FFF3083122A
:101F86000313C0000030C1000030B5000030B400BB
:101F96000030B3000030B200831203134108803AC8
:101FA600FF0080307F02031DDA2F01304002031844
:101FB600DD2FDE2FEB2F83120313C001C10100308A
:101FC600B5000030B4000030B3000030B200BF01ED
:101FD600831203134008C600461CF22FF32FF52F79
:101FE600B417F92F7F30FF007F08B4054608B60006
:101FF6000310360CB5009B2E08004E344F342034A7
:102006004C344F34473453342034413456344134FD
:1020160049344C34413442344C3445340A34003467
:10202600503461347334733477346F3472346434B7
:1020360020346334683461346E3467346534643410
:10204600003443346F346E34663472346D34203465
:102056006E346534773420345034613473347734D5
:102066006434003445346E34743465347234203448
:102076006E346534773420345034613473347334B9
:10208600773464340034543469346D346534203420
:102096003C34483448343A344D344D343A3453346D
:1020A60053343E3420340034203420346C346F34BE
:1020B60067347334203463346C3465346134723479
:1020C60065346434203420340034203420347334AE
:1020D60075346334633465347334733466347534F9
:1020E6006C346C3479342034203400342034453454
:1020F6006E3474346534723420345034613473343D
:10210600733477346F347234643420340034523488
:102116006534203445346E34743465347234203476
:102126005034613473347334773464342034003477
:102136002034203453347534633463346534733453
:10214600663475346C346C3479342034203400347D
:1021560020342034543449344D344534203420342A
:102166002034203445342034203453345034003461
:102176002034543449344D3445342034203420340A
:102186002034203445342034203453345034003441
:10219600773472346F346E3467342034703461347B
:1021A6007334733477346F34723464340034613486
:1021B6007434743465346D34703474347334203448
:1021C6006C3465346634743420340034203420345E
:1021D6007434723479342034613467346134693448
:1021E6006E342034203400346334683461346E3401
:1021F600673465342034703461347334733477341F
:102206006434003464346F3477346E346C346F3431
:102216006134643420346C346F34673400342034D1
:102226004E344F3420344534563445344E345434C9
:102236005334203400346C346F34673473342034B0
:102246007034723469346E347434003463346C34EC
:1022560065346134723420346C346F34673400343E
:102266005734613469347434203466346F347234CC
:10227600203400347334653474342034743469344F
:102286006D346534003476346934653477342034FB
:102296006C346F34673400346C346F3467342034F4
:1022A60031340A34003420347334653463340034F2
:1022B6004334203400344734313400344734323424
:1022C600003447343334003447343434003447342C
:1022D6003534003447344E3400344F344E340034F1
:0622E600473452340034BD
:1022F000F4007408031D7D297E29832983120313AA
:1023000006083F39A1293F30831203130605F30065
:102310003F30730603198D298E29952979080319F1
:10232000922993299529F9017E293F300605F3006A
:102330003F307306031D9D299E29A029F901F90A42
:102340003F300800F5000A168A1520260A168A1161
:10235000D0300A168A1550260A168A1175080A16F0
:102360008A1550260A168A110A168A1545260A1653
:102370008A11D1300A168A1550260A168A110030A1
:102380000A168A15B9270A168A11F6000A168A153E
:1023900029260A168A117608080083120313A00161
:1023A000A101731CD429D529DD29750883120313D3
:1023B000A0070318A10A7608A10701300310F50D44
:1023C000F60DFF3E031DDE2901300310F40CF30C63
:1023D000FF3E031DE52973087404031DF029F1294C
:1023E000D129831203132108F4002008F300080008
:1023F000F5000A168A1520260A168A11A0300A1638
:102400008A1550260A168A1175080A168A1550264A
:102410000A168A110A168A1545260A168A11A1304B
:102420000A168A1550260A168A1100300A168A15CD
:10243000B9270A168A11F6000A168A1529260A16DD
:102440008A11760808003E2A7408FF007308840089
:102450000A168A1500200A168A11FF007A08B13E72
:1024600084007F08831780000130F3070318F40A03
:102470000030F4070130FF007F08FA077408831268
:102480000313FF00730884000A168A1500200A1639
:102490008A11003A031D4D2A4E2A242A0800F4000E
:1024A000831603178C18552A562A502A740883124B
:1024B00003178D0073088C003F30FF007F088316E0
:1024C00003178C058312031303108B1F682A692AD4
:1024D0006A2A03148B13831603170C1555308D00CD
:1024E000AA308D008C140C1183120313031C792A5B
:1024F0007A2A7B2A8B170800F30183120313220820
:102500000A168A1599270A168A119E2AF301F30AD8
:102510002108FF00200884000A168A1500200A16E8
:102520008A110A168A1599270A168A110130831210
:102530000313A0070318A10A0030A1078312031395
:102540002108FF00200884000A168A1500200A16B8
:102550008A11003A031DAD2AAE2A862A080083128A
:10256000031394152D08F4002E08F5002F08F6002B
:102570003008F70002300310F40DF50DF60DF70DDD
:10258000FF3E031DBB2A7708A3007608A20075084A
:10259000A1007408A0000130A7003130A6002D3042
:1025A000A5000030A4000A168A112D270A168A11E8
:1025B000831203132008FF3E831603139300831234
:1025C000031394160800730874040319E82AE92A0F
:1025D000182BF701F70AF72A01300310F30DF40D59
:1025E000FF3E031DED2A0130FF007F08F707F41FAF
:1025F000FA2AFB2AEC2A74087602031D012B7308C1
:102600007502031C042B052B0B2B7308F5027408B1
:10261000031CF603F60201300310F40CF30CFF3E2A
:10262000031D0C2B0130F702031D172B182BFB2A5F
:102630007608F4007508F30008000A168A15662665
:102640000A168A110A168A1511260A168A110A16FE
:102650008A155B260A168A110A168A150B260A168F
:102660008A11003083120313B0000130AF008630AE
:10267000AE00A030AD000A168A11AF220A168A11E8
:102680000A168A15BF260A168A1100308312031310
:10269000B0000030AF002530AE008030AD000A162B
:1026A0008A1157230A168A118B170B1708008312F9
:1026B000031398178316031398161812181583120C
:1026C000031318162D08F4002E08F5002F08F60045
:1026D0003008F70004300310F40DF50DF60DF70D7A
:1026E000FF3E031D6B2B7708A3007608A200750838
:1026F000A1007408A0000130A7003130A6002D30E1
:10270000A5000030A4000A168A112D270A168A1186
:10271000831203132008FF3E8316031399008C16BF
:102720000C16831203138C120C120800FF30831254
:102730000313ED00FF30EE00FF30E500FF30E60050
:10274000EB01EB0A0A168A15AD260A168A115730D4
:1027500083120313A0009030A1008030A2000A165B
:102760008A117C220A168A11683083120313A00092
:102770009030A100C030A2000A168A117C220A16ED
:102780008A11333083120313A500BB30A400DF305D
:10279000A300A30BC92BA40BC92BA50BC92B0A168D
:1027A0008A15AD260A168A110800F700DF2B0130C2
:1027B000FF007F08F7070130FF007F08F307770865
:1027C0008400831300080319E62BE72BFA2B730808
:1027D000840000080319ED2BEE2BFA2B73088400FC
:1027E0000008F50077088400000875060319F92B26
:1027F000FA2BD72B730884000008F50077088400B3
:1028000000087506031D052C062C092CF301F401A4
:10281000172C730884000008F5007708840000086E
:10282000F60075087602F300F401031CF4030800B7
:1028300083120313A101A201730874040319212C4C
:10284000222C592CA001A00A302C01300310F30DCA
:10285000F40DFF3E031D262C0130FF007F08A0076A
:10286000F41F332C342C252C01300310A10DA20DA4
:10287000FF3E031D352C74087602031D412C73089E
:102880007502031C442C452C4C2C7308F50274086B
:10289000031CF603F602211401300310F40CF30CB0
:1028A000FF3E031D4D2C0130A002031D582C592C56
:1028B000342C2208F4002108F3000800F7008312EA
:1028C00003136E08803AFF0080307F02031D6A2CDC
:1028D0000A306D02031C6D2C6E2C722C83120313B4
:1028E000ED01EE01E2300A128A1503200A168A1160
:1028F0007A08B13E84002030831780000130FF0049
:102900007F08FA07770883120313A4002407C03E48
:1029100084000008F300840A00088403F4000A1607
:102920008A1123220A168A117A08B13E84002030C7
:10293000831780000130FF007F08FA07DF300A1696
:102940008A155E270A168A11B1300A168A110E26D8
:102950000A168A1108008312031323082204210493
:1029600020040319B42CB52CF82CF401F40AC52C5E
:102970000130F3000310A00DA10DA20DA30DF30B68
:10298000BA2C0130FF007F08F407A31FC82CC92C04
:10299000B82C23082702031DD72C22082602031D6A
:1029A000D72C21082502031DD72C20082402031C44
:1029B000DA2CDB2CE92C2008A4022108031C210FAF
:1029C000A5022208031C220FA6022308031C230FC2
:1029D000A70201300310A30CA20CA10CA00CFF3E17
:1029E000031DEA2C0130F402031DF72CF82CC92C2E
:1029F0002708A3002608A2002508A1002408A0009B
:102A00000800831603134B08D03E0339F600033049
:102A10000310F60DFF3E031D082D0310760DB900BF
:102A20004C08D03E0F39FF007F08B9044E08D03E55
:102A30000739F60003300310F60DFF3E031D1B2D72
:102A40000310760DBA004F08D03E0F39FF007F0803
:102A5000BA045108D03E0739F60003300310F60DD2
:102A6000FF3E031D2E2D0310760DBB005208D03EF5
:102A70000F39FF007F08BB043B08F40000300A1642
:102A80008A157B270A168A11831603133A08F40065
:102A900001300A168A157B270A168A11831603133A
:102AA0003908F40002300A168A157B270A168A11A3
:102AB00008000A168A111D230A168A1183120313AD
:102AC0006C080319642D652D6E2D01300A168A11CC
:102AD00078210A168A1183120313D800373058065A
:102AE000031D732D742D9F2D6C080319782D792DDE
:102AF0009F2D0A168A15AD260A168A118312031312
:102B0000EC019F2D58080A128A1573240A168A119F
:102B10005E2D6408031D8D2D8E2D942D0A128A11B1
:102B2000FA240A168A115E2D6403031D982D992D2F
:102B3000AF2D0A128A11FA260A168A115E2D6C0828
:102B4000D600D7015708003A0319A72D5E2D560865
:102B5000003A0319892D013A0319822D5E2D5E2D4D
:102B60000A128A110E2883120313A101F61FB92D30
:102B7000BA2DC12DF509F609F50A0319F60AA101C6
:102B8000A10AF41FC42DC52DCA2DF309F409F30AB7
:102B90000319F40A730874040319CF2DD02DFF2DE7
:102BA000A001A00ADE2D01300310F30DF40DFF3E4D
:102BB000031DD42D0130FF007F08A007F41FE12D75
:102BC000E22DD32D74087602031DE82D73087502DB
:102BD000031CEB2DEC2DF22D7308F5027408031C79
:102BE000F603F60201300310F40CF30CFF3E031D54
:102BF000F32D0130A002031DFE2DFF2DE22D210833
:102C00000319032E042E092EF509F609F50A0319F6
:102C1000F60A7608F4007508F3000800831203131F
:102C2000A2000F30F3006D080A168A15E5260A1671
:102C30008A1183120313A3004C2E0A168A1520262C
:102C40000A168A11A0300A168A1550260A168A1109
:102C50008312031323080A168A1550260A168A11AE
:102C60008312031322088400831700080A168A15AA
:102C700050260A168A110130FF007F0883120313C1
:102C8000A2070A168A1529260A168A110130FF00A2
:102C90007F0883120313A3076D08013EF3006E083B
:102CA0000318013E003EF4000F30F5000030F6003E
:102CB0000A168A11CD210A168A117408803A803CBE
:102CC000031D662E7308831203132302031C692E4F
:102CD0006A2E1D2E08000B1D6E2E6F2EC12E083081
:102CE000FF007F0883120313810762080319792EFE
:102CF0007A2EC02E013083160313AA070030031862
:102D00000130AB07003003180130AC070030031866
:102D10000130AD0720302A064E3003192B062C0453
:102D20002D04031D942E952EC02E00308316031300
:102D3000AD000030AC000030AB000030AA00350818
:102D4000031DAF2E3408031DAF2E3308031DAF2E15
:102D5000B4303202031DAC2E0318AF2EB02EC02E9D
:102D6000013083160313B207003003180130B30794
:102D7000003003180130B407003003180130B507E4
:102D80000B117208FF0071088A00700E8300FE0E9E
:102D90007E0E0900C33083120313A100CC30A000C3
:102DA000A00BD02EA10BD02E0000F30133300A1659
:102DB0008A1599270A168A111B3083120313A10062
:102DC0009D30A000A00BE22EA10BE22EE72EF30116
:102DD00033300A168A1599270A168A11A5308312EC
:102DE0000313A000A00BF22EF52EF30133300A16C8
:102DF0008A1599270A168A11FD2EFE2E0000F3016E
:102E000038300A168A1599270A168A11A5308312B6
:102E10000313A000A00B0A2F0D2FF30101300A1697
:102E20008A1599270A168A11043083120313A10008
:102E30003D30A000A00B1A2FA10B1A2FF3010C306C
:102E40000A168A1599270A168A11A53083120313C8
:102E5000A000A00B292F2C2F080000308312031391
:102E6000AB000030AA000030A9000030A800230801
:102E700022042104200403193E2F3F2F8C2FAC0184
:102E8000AC0A4F2F0130F3000310A00DA10DA20DCD
:102E9000A30DF30B442F0130FF007F08AC07A31FE5
:102EA000522F532F422F0130F3000310A80DA90D0C
:102EB000AA0DAB0DF30B552F23082702031D6A2F14
:102EC00022082602031D6A2F21082502031D6A2FEE
:102ED00020082402031C6D2F6E2F7D2F2008A402D2
:102EE0002108031C210FA5022208031C220FA602A1
:102EF0002308031C230FA702281401300310A30C7E
:102F0000A20CA10CA00CFF3E031D7E2F0130AC02D1
:102F1000031D8B2F8C2F532F2B08A3002A08A200F0
:102F20002908A1002808A000080083120313A300A9
:102F30002308840083130008F70004300310F70C03
:102F4000FF3E031D9E2F77080339303E831603137F
:102F5000CB00831203132308840000080F39303E8E
:102F600083160313CC003A30CD0083120313230AD7
:102F700084000008F70004300310F70CFF3E031D27
:102F8000BC2F77080739303E83160313CE00831217
:102F90000313230A840000080F39303E83160313FD
:102FA000CF003A30D000831203132308023E84007E
:102FB0000008F70004300310F70CFF3E031DDB2F61
:102FC00077080739303E83160313D10083120313A9
:102FD0002308023E840000080F39303E8316031395
:102FE000D200D301CB3083120313A0000030A10024
:102FF000C130A2000A168A117C220A168A11080022
:10300000FF1B0A2883137F1883170008840A0319FB
:10301000FF0A08007F087F398A000408840A031920
:04302000FF0A820021
:103C16008316031306083F3886000800831603132D
:103C26009F17831203131F14080064008001840A7F
:103C36000406031900340406192E0A168A157C2672
:103C46000A168A1583160313111408000A168A1514
:103C56007C260A168A1583160313111508002034CC
:103C66002034003403340034033400340134013486
:103C7600FF34FF3401340334013401340134013498
:103C8600FF34FF340A168A1529260A168A150A16DB
:103C96008A1520260A168A150800F3000A168A15C0
:103CA6007C260A168A1573088312031393000800EC
:103CB600831603138801091189100A168A11CA2668
:103CC6000A168A1508008316031381128115063019
:103CD6008312031381008B160B110800F30073087F
:103CE6008312031399000C1E792E7A2E762E0C124F
:103CF6000800831603131419812E822E7C2E1108B8
:103D06001F39031D872E882E7C2E0800831203136D
:103D16001F151F198F2E902E8C2E1E08F600831647
:103D260003131E08F5007608F4007508F300080072
:103D3600F300A42E7308840080010130FF007F0881
:103D4600F3077308840083130008031DAB2EAC2E03
:103D56009D2E0800F30101300A168A1599270A16C6
:103D66008A15043083120313A1003D30A000A00B76
:103D7600BA2EA10BBA2E080000300A168A11A2210B
:103D86000A168A15F70077087F39F7007708F400D6
:103D960000300A168A157B270A168A1508007E083F
:103DA6008A007F0882000A168A15D2260A168A1504
:103DB6008000840A04087D0603190034FF0A0319EB
:103DC600FE0AD62EF500F401751CEA2EEB2EEF2E18
:103DD6007308FF007F08F4070310F30D0310F50CBA
:103DE6007508031DF72EF82EE72E740808008312B7
:103DF6000313A000F30177080A168A1599270A16F5
:103E06008A15F301F30A8312031320080A168A158A
:103E160099270A168A150800F3006400831603170B
:103E26008C18162F172F102F7308831203178D0067
:103E36003F30FF007F08831603178C050C1483128E
:103E460003170C080800F500F601750884008313B3
:103E56000008F30076080A168A114F220A168A15F8
:103E66000130FF007F08F5070130FF007F08F607E5
:103E760004307602031C402F412F282F080070348F
:103E860091346D349134733491345E3491346134A9
:103E9600913464349134673491346A3491345B34A8
:103EA60091344634913429349134053491343D3477
:103EB6009134F7349034F300722F730884000008AD
:103EC600FF007A08B13E84007F0883178000013026
:103ED600FF007F08F3070130FF007F08FA07730829
:103EE600840083130008031D792F7A2F602F0800A2
:103EF600F5000A168A1520260A168A15D0300A16E3
:103F06008A1550260A168A1575080A168A15502625
:103F16000A168A1574080A168A1550260A168A156C
:103F26000A168A1529260A168A150800F600731835
:103F36009D2FA12F831203130915A42F8312031398
:103F46000911760888008914A630F400F40BA92F0D
:103F560000008312031389101B30F5009E30F40015
:103F6600F40BB32FF50BB32F00000800F3000A166D
:103F76008A157C260A168A158316031391150A16C6
:103F86008A157C260A168A15831203131308F40071
:103F96007303031DCF2FD02FD42F8316031391162F
:103FA600D72F831603139112111674080800EF2FEA
:103FB6007508FF00740884000A168A1500200A1680
:103FC6008A150A168A1571260A168A150130F4070B
:103FD6000318F50A0030F507750883120313FF006E
:103FE600740884000A168A1500200A168A15003AF3
:103FF600031DFE2FFF2FDB2F0800FF3FFF3FFF3F74
:02400600FF3F7A
:02400E00FB3F76
:00000001FF
