:060000000A128A11D92F3B
:100B0000313430343134303400340A128A11B8258B
:100B10000A128A1183160313111408000A128A118B
:100B2000B8250A128A1183160313111508000A1238
:100B30008A118E250A128A110A128A1185250A1233
:100B40008A110800F0000A128A11B8250A128A11C7
:100B5000700883120313930008008316031388019F
:100B6000091189100A128A11B6260A128A11080080
:100B7000831603131419BD2DBE2DB82D11081F396E
:100B8000031DC32DC42DB82D08000A128A11AD25EE
:100B90000A128A11003083120313A3000130A2004D
:100BA0008630A100A030A0000A128A1184260A1201
:100BB0008A110800F2000A128A1185250A128A1188
:100BC000A0300A128A11A2250A128A1172080A128A
:100BD0008A11A2250A128A1171080A128A11A22505
:100BE0000A128A110A128A118E250A128A11080025
:100BF000F3007018FC2D002E831203130915032E29
:100C0000831203130911730888008914A630F100B8
:100C1000F10B082E00008312031389101B30F20021
:100C20009E30F100F10B122EF20B122E0000080084
:100C3000F500F00174080A128A11F8250A128A11C7
:100C40002F2EF001F00A7508840000080A128A119C
:100C5000F8250A128A110130FF007F08F507750890
:100C6000840083130008031D362E372E212E080022
:100C7000F0000A128A11B8250A128A11831603138A
:100C800091150A128A11B8250A128A1183120313C8
:100C90001308F1007003031D4E2E4F2E532E8316A2
:100CA00003139116562E8316031391121116710811
:100CB0000800F2000A128A1185250A128A11A03052
:100CC0000A128A11A2250A128A1172080A128A11BE
:100CD000A2250A128A110A128A1197250A128A116C
:100CE000A1300A128A11A2250A128A1100300A12B2
:100CF0008A1138260A128A11F3000A128A118E25E7
:100D00000A128A117308080083120313941520082D
:100D1000A4002108A5002208A6002308A70002308D
:100D20000310A40DA50DA60DA70DFF3E031D902ECB
:100D30002708F3002608F2002508F1002408F00037
:100D40000130F7003130F6002D30F5000030F400AE
:100D50000A128A110D270A128A117008FF3E8316A3
:100D6000031393008312031394160800C330F50095
:100D7000CD30F400F40BBA2EF50BBA2EF00133305F
:100D80000A128A11F8250A128A111B30F5009E30CA
:100D9000F400F40BC92EF50BC92E0000F00133301E
:100DA0000A128A11F8250A128A11A630F400F40BEF
:100DB000D72E0000F00133300A128A11F8250A12EA
:100DC0008A11E22EE32E0000F00138300A128A1157
:100DD000F8250A128A11A630F400F40BED2E00005B
:100DE000F00101300A128A11F8250A128A11043022
:100DF000F5003D30F400F40BFB2EF50BFB2E002F1D
:100E0000F0010C300A128A11F8250A128A11A63054
:100E1000F400F40B092F000008000030FC00003043
:100E2000FB000030FA000030F9007308720471040E
:100E3000700403191C2F1D2F6A2FFD01FD0A2D2F91
:100E40000130F8000310F00DF10DF20DF30DF80B69
:100E5000222F0130FF007F08FD07F31F302F312FB5
:100E6000202F0130F8000310F90DFA0DFB0DFC0DD9
:100E7000F80B332F73087702031D482F7208760290
:100E8000031D482F71087502031D482F7008740256
:100E9000031C4B2F4C2F5B2F7008F4027108031CAE
:100EA000710FF5027208031C720FF6027308031C1F
:100EB000730FF702791401300310F30CF20CF10CEC
:100EC000F00CFF3E031D5C2F0130FD02031D692F56
:100ED0006A2F312F7C08F3007B08F2007A08F100BA
:100EE0007908F00008000A128A11C5250A128A1131
:100EF00028308400831203133A0883138000840A85
:100F00003B088000840A3C088000840A3D08800079
:100F1000840A3E0880002D3084000530FF008001E7
:100F2000840AFF0B8F2F283083120313B2009630F0
:100F3000B3003208840083130008F10033080A125A
:100F40008A11DA250A128A110130FF007F08831204
:100F50000313B2070130FF007F08B3079A30330252
:100F6000031CB32FB42F992F9630B40034082D3EB4
:100F7000840034080A128A1159260A128A1183132E
:100F800080000130FF007F0883120313B4079A30FA
:100F90003402031CCC2FCD2FB62FC330F4002D30DC
:100FA0000A128A1118260A128A11932F0A128A111C
:100FB00000280A128A1180250A128A11BA000A1220
:100FC0008A1181250A128A11BB000A128A11822510
:100FD0000A128A11BC000A128A1183250A128A1188
:100FE000BD000A128A1184250A128A11BE00B501B9
:100FF000B601B701B801B90183010A128A11732F32
:08400000FF3FFF3FFF3FFF3FC0
:02400E00FB3F76
:00000001FF
